:020000041000EA
:10C000000000022043C0001041C0001041C00010D9
:10C0100041C0001041C0001041C0001000000000ED
:10C0200000000000000000000000000041C00010FF
:10C0300041C000100000000041C0001041C00010CD
:10C04000FEE708B50A4A0B4B0B498B4207D3002188
:10C050000A4B0B4A934207D300F014F8FEE752F85C
:10C06000040B43F8040BF0E743F8041BF2E700BFAE
:10C0700088C0001000000020000000200000002008
:08C080000000002030BFFDE7C5
:040000051000C043E4
:00000001FF
